:0400000025EF3FF0B9
:107E25000100000001720ED36E000E956E000E8CDF
:107E35006E938C938A9388F19E38EC3FF01FEF3F49
:107E4500F000EF00F0250EF66E7E0EF76E000EF8D0
:107E55006E00EE09F010EE05F00900F5CFEEFFE536
:107E650050E150FAE1000115EF3FF0000E086E00F9
:107E75000E076E08BE48EF3FF0085009E1080E07EF
:107E85005CD8A048EF3FF04AEF3FF04CEF3FF0FFE2
:107E9500EF3FF007C001F0020E0126010E026E0150
:107EA5002A57EF3FF0D8900236012E55EF3FF007E5
:107EB500C003F0010E0326010E046E032A65EF3F91
:107EC500F0D8900436032E63EF3FF007C005F001AC
:107ED5000E066E052A71EF3FF0D8900636052E6F17
:107EE500EF3FF00650042402248C6E09040A100B9F
:107EF500100C10D8A481EF3FF083EF3FF091EF3FD6
:107F0500F0020E026E040E016EBA0EE82EFED701C7
:107F15002EFCD7022EFAD700D0D3EF3FF0020E0980
:107F2500180A100B100C10D8A49BEF3FF09DEF3FE3
:107F3500F09FEF3FF083EF3FF0030E09180A100B97
:107F4500100C10D8A4A9EF3FF0ABEF3FF0B9EF3F0D
:107F5500F0030E026E080E016E770EE82EFED701B5
:107F65002EFCD7022EFAD700F0D3EF3FF0040E090E
:107F7500180A100B100C10D8A4C3EF3FF0C5EF3F43
:107F8500F0D3EF3FF0050E026E0F0E016EF10EE815
:107F95002EFED7012EFCD7022EFAD700F0D3EF3FE5
:107FA500F081BCD8EF3FF0DAEF3FF0FBEF3FF08216
:107FB5000E016EDE0EE82EFED7012EFCD7010E094E
:107FC50026000E0A220B220C22050E09180A100B98
:107FD500100C10D8A4F1EF3FF0F3EF3FF0FBEF3FAB
:107FE500F0010E096E000E0A6E000E0B6E000E0CEF
:0B7FF5006E074A082A3CEF3FF0120024
:020000040020DA
:08000000FFFFFFFFFFFFFFFF00
:020000040030CA
:0E0000000008191EFF0381FF0FC00FE00F4024
:00000001FF
